{
  "contractName": "VotingSystem",
  "abi": [
    {
      "inputs": [],
      "stateMutability": "nonpayable",
      "type": "constructor"
    },
    {
      "anonymous": false,
      "inputs": [
        {
          "indexed": true,
          "internalType": "uint256",
          "name": "candidateId",
          "type": "uint256"
        },
        {
          "indexed": false,
          "internalType": "string",
          "name": "name",
          "type": "string"
        }
      ],
      "name": "CandidateAdded",
      "type": "event"
    },
    {
      "anonymous": false,
      "inputs": [
        {
          "indexed": true,
          "internalType": "address",
          "name": "voter",
          "type": "address"
        },
        {
          "indexed": true,
          "internalType": "uint256",
          "name": "candidateId",
          "type": "uint256"
        }
      ],
      "name": "VoteCast",
      "type": "event"
    },
    {
      "anonymous": false,
      "inputs": [
        {
          "indexed": true,
          "internalType": "address",
          "name": "voter",
          "type": "address"
        }
      ],
      "name": "VoterRegistered",
      "type": "event"
    },
    {
      "anonymous": false,
      "inputs": [],
      "name": "VotingClosed",
      "type": "event"
    },
    {
      "anonymous": false,
      "inputs": [],
      "name": "VotingOpened",
      "type": "event"
    },
    {
      "inputs": [
        {
          "internalType": "uint256",
          "name": "",
          "type": "uint256"
        }
      ],
      "name": "candidates",
      "outputs": [
        {
          "internalType": "string",
          "name": "name",
          "type": "string"
        },
        {
          "internalType": "uint256",
          "name": "voteCount",
          "type": "uint256"
        }
      ],
      "stateMutability": "view",
      "type": "function",
      "constant": true
    },
    {
      "inputs": [],
      "name": "owner",
      "outputs": [
        {
          "internalType": "address",
          "name": "",
          "type": "address"
        }
      ],
      "stateMutability": "view",
      "type": "function",
      "constant": true
    },
    {
      "inputs": [
        {
          "internalType": "address",
          "name": "",
          "type": "address"
        }
      ],
      "name": "voters",
      "outputs": [
        {
          "internalType": "bool",
          "name": "isRegistered",
          "type": "bool"
        },
        {
          "internalType": "bool",
          "name": "hasVoted",
          "type": "bool"
        },
        {
          "internalType": "uint256",
          "name": "votedCandidateId",
          "type": "uint256"
        }
      ],
      "stateMutability": "view",
      "type": "function",
      "constant": true
    },
    {
      "inputs": [],
      "name": "votingOpen",
      "outputs": [
        {
          "internalType": "bool",
          "name": "",
          "type": "bool"
        }
      ],
      "stateMutability": "view",
      "type": "function",
      "constant": true
    },
    {
      "inputs": [
        {
          "internalType": "address",
          "name": "_voter",
          "type": "address"
        }
      ],
      "name": "registerVoter",
      "outputs": [],
      "stateMutability": "nonpayable",
      "type": "function"
    },
    {
      "inputs": [
        {
          "internalType": "string",
          "name": "_name",
          "type": "string"
        }
      ],
      "name": "addCandidate",
      "outputs": [],
      "stateMutability": "nonpayable",
      "type": "function"
    },
    {
      "inputs": [],
      "name": "openVoting",
      "outputs": [],
      "stateMutability": "nonpayable",
      "type": "function"
    },
    {
      "inputs": [],
      "name": "closeVoting",
      "outputs": [],
      "stateMutability": "nonpayable",
      "type": "function"
    },
    {
      "inputs": [],
      "name": "registerSelf",
      "outputs": [],
      "stateMutability": "nonpayable",
      "type": "function"
    },
    {
      "inputs": [
        {
          "internalType": "uint256",
          "name": "_candidateId",
          "type": "uint256"
        }
      ],
      "name": "castVote",
      "outputs": [],
      "stateMutability": "nonpayable",
      "type": "function"
    },
    {
      "inputs": [],
      "name": "getCandidateCount",
      "outputs": [
        {
          "internalType": "uint256",
          "name": "",
          "type": "uint256"
        }
      ],
      "stateMutability": "view",
      "type": "function",
      "constant": true
    },
    {
      "inputs": [
        {
          "internalType": "uint256",
          "name": "_candidateId",
          "type": "uint256"
        }
      ],
      "name": "getCandidate",
      "outputs": [
        {
          "internalType": "string",
          "name": "name",
          "type": "string"
        },
        {
          "internalType": "uint256",
          "name": "votes",
          "type": "uint256"
        }
      ],
      "stateMutability": "view",
      "type": "function",
      "constant": true
    },
    {
      "inputs": [],
      "name": "getResults",
      "outputs": [
        {
          "internalType": "string[]",
          "name": "names",
          "type": "string[]"
        },
        {
          "internalType": "uint256[]",
          "name": "votes",
          "type": "uint256[]"
        }
      ],
      "stateMutability": "view",
      "type": "function",
      "constant": true
    }
  ],
  "bytecode": "0x608060405234801561001057600080fd5b50600080546001600160a01b031916331790556003805460ff19169055610fab8061003c6000396000f3fe608060405234801561001057600080fd5b50600436106100cf5760003560e01c80634717f97c1161008c578063a95824b411610066578063a95824b4146101eb578063affc067014610208578063c631b29214610210578063cbc0415d1461021857600080fd5b80634717f97c146101595780638da5cb5b1461016f578063a3ec138d1461019a57600080fd5b806330a56347146100d45780633477ee2e146100ea57806335b8e8201461010b57806338db6dd31461011e5780633eb76b9c14610133578063462e91ec14610146575b600080fd5b6002546040519081526020015b60405180910390f35b6100fd6100f8366004610b71565b610220565b6040516100e1929190610bd0565b6100fd610119366004610b71565b6102dc565b61013161012c366004610bf2565b6103f0565b005b610131610141366004610b71565b6104c7565b610131610154366004610c38565b610676565b61016161078d565b6040516100e1929190610ce9565b600054610182906001600160a01b031681565b6040516001600160a01b0390911681526020016100e1565b6101ce6101a8366004610bf2565b6001602081905260009182526040909120805491015460ff808316926101009004169083565b6040805193151584529115156020840152908201526060016100e1565b6003546101f89060ff1681565b60405190151581526020016100e1565b610131610958565b610131610a3b565b610131610ad7565b6002818154811061023057600080fd5b906000526020600020906002020160009150905080600001805461025390610d84565b80601f016020809104026020016040519081016040528092919081815260200182805461027f90610d84565b80156102cc5780601f106102a1576101008083540402835291602001916102cc565b820191906000526020600020905b8154815290600101906020018083116102af57829003601f168201915b5050505050908060010154905082565b600254606090600090831061032c5760405162461bcd60e51b8152602060048201526011602482015270496e76616c69642063616e64696461746560781b60448201526064015b60405180910390fd5b60006002848154811061034157610341610dbe565b9060005260206000209060020201905080600001816001015481805461036690610d84565b80601f016020809104026020016040519081016040528092919081815260200182805461039290610d84565b80156103df5780601f106103b4576101008083540402835291602001916103df565b820191906000526020600020905b8154815290600101906020018083116103c257829003601f168201915b505050505091509250925050915091565b6000546001600160a01b0316331461041a5760405162461bcd60e51b815260040161032390610dd4565b6001600160a01b03811660009081526001602052604090205460ff16156104785760405162461bcd60e51b8152602060048201526012602482015271105b1c9958591e481c9959da5cdd195c995960721b6044820152606401610323565b6001600160a01b0381166000818152600160208190526040808320805460ff1916909217909155517fb6be2187d059cc2a55fe29e0e503b566e1e0f8c8780096e185429350acffd3dd9190a250565b3360009081526001602052604090205460ff166105175760405162461bcd60e51b815260206004820152600e60248201526d139bdd081c9959da5cdd195c995960921b6044820152606401610323565b60035460ff1661055c5760405162461bcd60e51b815260206004820152601060248201526f159bdd1a5b99c81a5cc818db1bdcd95960821b6044820152606401610323565b60025481106105a15760405162461bcd60e51b8152602060048201526011602482015270496e76616c69642063616e64696461746560781b6044820152606401610323565b3360009081526001602052604090208054610100900460ff16156105f75760405162461bcd60e51b815260206004820152600d60248201526c105b1c9958591e481d9bdd1959609a1b6044820152606401610323565b805461ff0019166101001781556001818101839055600280548490811061062057610620610dbe565b906000526020600020906002020160010160008282546106409190610e0e565b9091555050604051829033907fa36cc2bebb74db33e9f88110a07ef56e1b31b24b4c4f51b54b1664266e29f45b90600090a35050565b6000546001600160a01b031633146106a05760405162461bcd60e51b815260040161032390610dd4565b60008151116106e15760405162461bcd60e51b815260206004820152600d60248201526c13985b59481c995c5d5a5c9959609a1b6044820152606401610323565b604080518082019091528181526000602082018190526002805460018101825591819052825191027f405787fa12a823e0f2b7631cc41b3ba8828b3321ca811111fa75cd3aa3bb5ace019081906107389082610e76565b50602091909101516001918201556002546107539190610f36565b7fe83b2a43e7e82d975c8a0a6d2f045153c869e111136a34d1889ab7b598e396a3826040516107829190610f49565b60405180910390a250565b60025460609081908067ffffffffffffffff8111156107ae576107ae610c22565b6040519080825280602002602001820160405280156107e157816020015b60608152602001906001900390816107cc5790505b5092508067ffffffffffffffff8111156107fd576107fd610c22565b604051908082528060200260200182016040528015610826578160200160208202803683370190505b50915060005b81811015610952576002818154811061084757610847610dbe565b9060005260206000209060020201600001805461086390610d84565b80601f016020809104026020016040519081016040528092919081815260200182805461088f90610d84565b80156108dc5780601f106108b1576101008083540402835291602001916108dc565b820191906000526020600020905b8154815290600101906020018083116108bf57829003601f168201915b50505050508482815181106108f3576108f3610dbe565b60200260200101819052506002818154811061091157610911610dbe565b90600052602060002090600202016001015483828151811061093557610935610dbe565b60209081029190910101528061094a81610f5c565b91505061082c565b50509091565b6000546001600160a01b031633146109825760405162461bcd60e51b815260040161032390610dd4565b60035460ff16156109c45760405162461bcd60e51b815260206004820152600c60248201526b20b63932b0b23c9037b832b760a11b6044820152606401610323565b600254610a035760405162461bcd60e51b815260206004820152600d60248201526c4e6f2063616e6469646174657360981b6044820152606401610323565b6003805460ff191660011790556040517fa737faa632a36c00ccb4220893426e922f9442f1cab67acd8301f88a596d4abc90600090a1565b6000546001600160a01b03163314610a655760405162461bcd60e51b815260040161032390610dd4565b60035460ff16610aa25760405162461bcd60e51b81526020600482015260086024820152672737ba1037b832b760c11b6044820152606401610323565b6003805460ff191690556040517f66b6cb4a09abc3bf1cacc3c67420258856ffdad0deba9078cbd1658957b5021890600090a1565b3360009081526001602052604090205460ff1615610b2c5760405162461bcd60e51b8152602060048201526012602482015271105b1c9958591e481c9959da5cdd195c995960721b6044820152606401610323565b336000818152600160208190526040808320805460ff1916909217909155517fb6be2187d059cc2a55fe29e0e503b566e1e0f8c8780096e185429350acffd3dd9190a2565b600060208284031215610b8357600080fd5b5035919050565b6000815180845260005b81811015610bb057602081850181015186830182015201610b94565b506000602082860101526020601f19601f83011685010191505092915050565b604081526000610be36040830185610b8a565b90508260208301529392505050565b600060208284031215610c0457600080fd5b81356001600160a01b0381168114610c1b57600080fd5b9392505050565b634e487b7160e01b600052604160045260246000fd5b600060208284031215610c4a57600080fd5b813567ffffffffffffffff80821115610c6257600080fd5b818401915084601f830112610c7657600080fd5b813581811115610c8857610c88610c22565b604051601f8201601f19908116603f01168101908382118183101715610cb057610cb0610c22565b81604052828152876020848701011115610cc957600080fd5b826020860160208301376000928101602001929092525095945050505050565b6000604082016040835280855180835260608501915060608160051b8601019250602080880160005b83811015610d4057605f19888703018552610d2e868351610b8a565b95509382019390820190600101610d12565b50508584038187015286518085528782019482019350915060005b82811015610d7757845184529381019392810192600101610d5b565b5091979650505050505050565b600181811c90821680610d9857607f821691505b602082108103610db857634e487b7160e01b600052602260045260246000fd5b50919050565b634e487b7160e01b600052603260045260246000fd5b6020808252600a908201526927b7363c9037bbb732b960b11b604082015260600190565b634e487b7160e01b600052601160045260246000fd5b80820180821115610e2157610e21610df8565b92915050565b601f821115610e7157600081815260208120601f850160051c81016020861015610e4e5750805b601f850160051c820191505b81811015610e6d57828155600101610e5a565b5050505b505050565b815167ffffffffffffffff811115610e9057610e90610c22565b610ea481610e9e8454610d84565b84610e27565b602080601f831160018114610ed95760008415610ec15750858301515b600019600386901b1c1916600185901b178555610e6d565b600085815260208120601f198616915b82811015610f0857888601518255948401946001909101908401610ee9565b5085821015610f265787850151600019600388901b60f8161c191681555b5050505050600190811b01905550565b81810381811115610e2157610e21610df8565b602081526000610c1b6020830184610b8a565b600060018201610f6e57610f6e610df8565b506001019056fea26469706673582212202295f232b97a155802c4d5e8b2ea3a74a140670082b25987f408753986d2a32664736f6c63430008130033",
  "immutableReferences": {},
  "source": "// SPDX-License-Identifier: MIT\r\npragma solidity ^0.8.19;\r\n\r\ncontract VotingSystem {\r\n    struct Voter {\r\n        bool isRegistered;\r\n        bool hasVoted;\r\n        uint256 votedCandidateId;\r\n    }\r\n\r\n    struct Candidate {\r\n        string name;\r\n        uint256 voteCount;\r\n    }\r\n\r\n    address public owner;\r\n    mapping(address => Voter) public voters;\r\n    Candidate[] public candidates;\r\n    bool public votingOpen;\r\n\r\n    event VoterRegistered(address indexed voter);\r\n    event CandidateAdded(uint256 indexed candidateId, string name);\r\n    event VoteCast(address indexed voter, uint256 indexed candidateId);\r\n    event VotingOpened();\r\n    event VotingClosed();\r\n\r\n    modifier onlyOwner() {\r\n        require(msg.sender == owner, \"Only owner\");\r\n        _;\r\n    }\r\n\r\n    modifier onlyRegistered() {\r\n        require(voters[msg.sender].isRegistered, \"Not registered\");\r\n        _;\r\n    }\r\n\r\n    modifier whenVotingOpen() {\r\n        require(votingOpen, \"Voting is closed\");\r\n        _;\r\n    }\r\n\r\n    constructor() {\r\n        owner = msg.sender;\r\n        votingOpen = false;\r\n    }\r\n\r\n    // Admin functions\r\n    function registerVoter(address _voter) external onlyOwner {\r\n        require(!voters[_voter].isRegistered, \"Already registered\");\r\n        voters[_voter].isRegistered = true;\r\n        emit VoterRegistered(_voter);\r\n    }\r\n\r\n    function addCandidate(string memory _name) external onlyOwner {\r\n        require(bytes(_name).length > 0, \"Name required\");\r\n        candidates.push(Candidate({name: _name, voteCount: 0}));\r\n        emit CandidateAdded(candidates.length - 1, _name);\r\n    }\r\n\r\n    function openVoting() external onlyOwner {\r\n        require(!votingOpen, \"Already open\");\r\n        require(candidates.length > 0, \"No candidates\");\r\n        votingOpen = true;\r\n        emit VotingOpened();\r\n    }\r\n\r\n    function closeVoting() external onlyOwner {\r\n        require(votingOpen, \"Not open\");\r\n        votingOpen = false;\r\n        emit VotingClosed();\r\n    }\r\n\r\n    // Convenience for demo: self-registration by voter\r\n    function registerSelf() external {\r\n        require(!voters[msg.sender].isRegistered, \"Already registered\");\r\n        voters[msg.sender].isRegistered = true;\r\n        emit VoterRegistered(msg.sender);\r\n    }\r\n\r\n    // Voter function\r\n    function castVote(uint256 _candidateId) external onlyRegistered whenVotingOpen {\r\n        require(_candidateId < candidates.length, \"Invalid candidate\");\r\n        Voter storage v = voters[msg.sender];\r\n        require(!v.hasVoted, \"Already voted\");\r\n        v.hasVoted = true;\r\n        v.votedCandidateId = _candidateId;\r\n        candidates[_candidateId].voteCount += 1;\r\n        emit VoteCast(msg.sender, _candidateId);\r\n    }\r\n\r\n    // Read helpers\r\n    function getCandidateCount() external view returns (uint256) {\r\n        return candidates.length;\r\n    }\r\n\r\n    function getCandidate(uint256 _candidateId) external view returns (string memory name, uint256 votes) {\r\n        require(_candidateId < candidates.length, \"Invalid candidate\");\r\n        Candidate storage c = candidates[_candidateId];\r\n        return (c.name, c.voteCount);\r\n    }\r\n\r\n    function getResults() external view returns (string[] memory names, uint256[] memory votes) {\r\n        uint256 len = candidates.length;\r\n        names = new string[](len);\r\n        votes = new uint256[](len);\r\n        for (uint256 i = 0; i < len; i++) {\r\n            names[i] = candidates[i].name;\r\n            votes[i] = candidates[i].voteCount;\r\n        }\r\n    }\r\n}",
  "sourcePath": "C:\\Users\\Vraj\\Desktop\\blockchain-voting-system zip - Copy\\blockchain-voting-system\\blockchain\\contracts\\VotingSystem.sol",
  "compiler": {
    "name": "solc",
    "version": "0.8.19+commit.7dd6d404.Emscripten.clang"
  },
  "schemaVersion": "3.4.16",
  "updatedAt": "2025-10-15T07:33:17.911Z",
  "networkType": "ethereum",
  "devdoc": {
    "kind": "dev",
    "methods": {},
    "version": 1
  },
  "userdoc": {
    "kind": "user",
    "methods": {},
    "version": 1
  }
}